:060000000A128A110E290C
:10000800F000030EF1000B186C210B197C21710E06
:080018008300F00E700E0900D8
:100200008A010A140F3982073F3406345B344F34B5
:1002100066346D347D3407347F34673417212B21E5
:100220003221382141214E215721652113290317FD
:1002300083168801890103138316850187018801CC
:100240000614861481131514951403138312850163
:10025000870188010800031383160F178F120F12EE
:100260000F1408008B178B158B160B100B11080041
:1002700003138316161496140313831206080B1027
:1002800008000313831681128111011581100110DA
:1002900003138312643081000B11080020080E3E06
:1002A000A300231B54210800A001A10A0800210873
:1002B000063EA400241A5D210800A101A20A22081A
:1002C000023EA500A519A20108002108002187000F
:1002D0002208002185000800061C880A081A8801E7
:1002E000861C8803881B76210B10080088010814DF
:1002F0008814081588150800A00A031383126430B7
:0603000081000B11080052
:04400E00D420FF3F7C
:00000001FF
